{
    "_format": "hh-sol-artifact-1",
    "contractName": "RoboPunksNFT",
    "sourceName": "contracts/RoboPunksNFT.sol",
    "abi": [
        {
            "inputs": [],
            "stateMutability": "payable",
            "type": "constructor"
        },
        {
            "anonymous": false,
            "inputs": [
                {
                    "indexed": true,
                    "internalType": "address",
                    "name": "owner",
                    "type": "address"
                },
                {
                    "indexed": true,
                    "internalType": "address",
                    "name": "approved",
                    "type": "address"
                },
                {
                    "indexed": true,
                    "internalType": "uint256",
                    "name": "tokenId",
                    "type": "uint256"
                }
            ],
            "name": "Approval",
            "type": "event"
        },
        {
            "anonymous": false,
            "inputs": [
                {
                    "indexed": true,
                    "internalType": "address",
                    "name": "owner",
                    "type": "address"
                },
                {
                    "indexed": true,
                    "internalType": "address",
                    "name": "operator",
                    "type": "address"
                },
                {
                    "indexed": false,
                    "internalType": "bool",
                    "name": "approved",
                    "type": "bool"
                }
            ],
            "name": "ApprovalForAll",
            "type": "event"
        },
        {
            "anonymous": false,
            "inputs": [
                {
                    "indexed": true,
                    "internalType": "address",
                    "name": "previousOwner",
                    "type": "address"
                },
                {
                    "indexed": true,
                    "internalType": "address",
                    "name": "newOwner",
                    "type": "address"
                }
            ],
            "name": "OwnershipTransferred",
            "type": "event"
        },
        {
            "anonymous": false,
            "inputs": [
                {
                    "indexed": true,
                    "internalType": "address",
                    "name": "from",
                    "type": "address"
                },
                {
                    "indexed": true,
                    "internalType": "address",
                    "name": "to",
                    "type": "address"
                },
                {
                    "indexed": true,
                    "internalType": "uint256",
                    "name": "tokenId",
                    "type": "uint256"
                }
            ],
            "name": "Transfer",
            "type": "event"
        },
        {
            "inputs": [
                {
                    "internalType": "address",
                    "name": "to",
                    "type": "address"
                },
                {
                    "internalType": "uint256",
                    "name": "tokenId",
                    "type": "uint256"
                }
            ],
            "name": "approve",
            "outputs": [],
            "stateMutability": "nonpayable",
            "type": "function"
        },
        {
            "inputs": [
                {
                    "internalType": "address",
                    "name": "owner",
                    "type": "address"
                }
            ],
            "name": "balanceOf",
            "outputs": [
                {
                    "internalType": "uint256",
                    "name": "",
                    "type": "uint256"
                }
            ],
            "stateMutability": "view",
            "type": "function"
        },
        {
            "inputs": [
                {
                    "internalType": "uint256",
                    "name": "tokenId",
                    "type": "uint256"
                }
            ],
            "name": "getApproved",
            "outputs": [
                {
                    "internalType": "address",
                    "name": "",
                    "type": "address"
                }
            ],
            "stateMutability": "view",
            "type": "function"
        },
        {
            "inputs": [
                {
                    "internalType": "address",
                    "name": "owner",
                    "type": "address"
                },
                {
                    "internalType": "address",
                    "name": "operator",
                    "type": "address"
                }
            ],
            "name": "isApprovedForAll",
            "outputs": [
                {
                    "internalType": "bool",
                    "name": "",
                    "type": "bool"
                }
            ],
            "stateMutability": "view",
            "type": "function"
        },
        {
            "inputs": [],
            "name": "isPublicMintEnable",
            "outputs": [
                {
                    "internalType": "bool",
                    "name": "",
                    "type": "bool"
                }
            ],
            "stateMutability": "view",
            "type": "function"
        },
        {
            "inputs": [],
            "name": "maxPerWallet",
            "outputs": [
                {
                    "internalType": "uint256",
                    "name": "",
                    "type": "uint256"
                }
            ],
            "stateMutability": "view",
            "type": "function"
        },
        {
            "inputs": [],
            "name": "maxSupply",
            "outputs": [
                {
                    "internalType": "uint256",
                    "name": "",
                    "type": "uint256"
                }
            ],
            "stateMutability": "view",
            "type": "function"
        },
        {
            "inputs": [
                {
                    "internalType": "uint256",
                    "name": "quantity_",
                    "type": "uint256"
                }
            ],
            "name": "mint",
            "outputs": [],
            "stateMutability": "payable",
            "type": "function"
        },
        {
            "inputs": [],
            "name": "mintPrice",
            "outputs": [
                {
                    "internalType": "uint256",
                    "name": "",
                    "type": "uint256"
                }
            ],
            "stateMutability": "view",
            "type": "function"
        },
        {
            "inputs": [],
            "name": "name",
            "outputs": [
                {
                    "internalType": "string",
                    "name": "",
                    "type": "string"
                }
            ],
            "stateMutability": "view",
            "type": "function"
        },
        {
            "inputs": [],
            "name": "owner",
            "outputs": [
                {
                    "internalType": "address",
                    "name": "",
                    "type": "address"
                }
            ],
            "stateMutability": "view",
            "type": "function"
        },
        {
            "inputs": [
                {
                    "internalType": "uint256",
                    "name": "tokenId",
                    "type": "uint256"
                }
            ],
            "name": "ownerOf",
            "outputs": [
                {
                    "internalType": "address",
                    "name": "",
                    "type": "address"
                }
            ],
            "stateMutability": "view",
            "type": "function"
        },
        {
            "inputs": [],
            "name": "renounceOwnership",
            "outputs": [],
            "stateMutability": "nonpayable",
            "type": "function"
        },
        {
            "inputs": [
                {
                    "internalType": "address",
                    "name": "from",
                    "type": "address"
                },
                {
                    "internalType": "address",
                    "name": "to",
                    "type": "address"
                },
                {
                    "internalType": "uint256",
                    "name": "tokenId",
                    "type": "uint256"
                }
            ],
            "name": "safeTransferFrom",
            "outputs": [],
            "stateMutability": "nonpayable",
            "type": "function"
        },
        {
            "inputs": [
                {
                    "internalType": "address",
                    "name": "from",
                    "type": "address"
                },
                {
                    "internalType": "address",
                    "name": "to",
                    "type": "address"
                },
                {
                    "internalType": "uint256",
                    "name": "tokenId",
                    "type": "uint256"
                },
                {
                    "internalType": "bytes",
                    "name": "data",
                    "type": "bytes"
                }
            ],
            "name": "safeTransferFrom",
            "outputs": [],
            "stateMutability": "nonpayable",
            "type": "function"
        },
        {
            "inputs": [
                {
                    "internalType": "address",
                    "name": "operator",
                    "type": "address"
                },
                {
                    "internalType": "bool",
                    "name": "approved",
                    "type": "bool"
                }
            ],
            "name": "setApprovalForAll",
            "outputs": [],
            "stateMutability": "nonpayable",
            "type": "function"
        },
        {
            "inputs": [
                {
                    "internalType": "string",
                    "name": "baseTokenUri_",
                    "type": "string"
                }
            ],
            "name": "setBaseTokenUri",
            "outputs": [],
            "stateMutability": "nonpayable",
            "type": "function"
        },
        {
            "inputs": [
                {
                    "internalType": "bool",
                    "name": "isPublicMintEnabled_",
                    "type": "bool"
                }
            ],
            "name": "setIsPublicMintEnable",
            "outputs": [],
            "stateMutability": "nonpayable",
            "type": "function"
        },
        {
            "inputs": [
                {
                    "internalType": "bytes4",
                    "name": "interfaceId",
                    "type": "bytes4"
                }
            ],
            "name": "supportsInterface",
            "outputs": [
                {
                    "internalType": "bool",
                    "name": "",
                    "type": "bool"
                }
            ],
            "stateMutability": "view",
            "type": "function"
        },
        {
            "inputs": [],
            "name": "symbol",
            "outputs": [
                {
                    "internalType": "string",
                    "name": "",
                    "type": "string"
                }
            ],
            "stateMutability": "view",
            "type": "function"
        },
        {
            "inputs": [
                {
                    "internalType": "uint256",
                    "name": "tokenId_",
                    "type": "uint256"
                }
            ],
            "name": "tokenURI",
            "outputs": [
                {
                    "internalType": "string",
                    "name": "",
                    "type": "string"
                }
            ],
            "stateMutability": "view",
            "type": "function"
        },
        {
            "inputs": [],
            "name": "totalSupply",
            "outputs": [
                {
                    "internalType": "uint256",
                    "name": "",
                    "type": "uint256"
                }
            ],
            "stateMutability": "view",
            "type": "function"
        },
        {
            "inputs": [
                {
                    "internalType": "address",
                    "name": "from",
                    "type": "address"
                },
                {
                    "internalType": "address",
                    "name": "to",
                    "type": "address"
                },
                {
                    "internalType": "uint256",
                    "name": "tokenId",
                    "type": "uint256"
                }
            ],
            "name": "transferFrom",
            "outputs": [],
            "stateMutability": "nonpayable",
            "type": "function"
        },
        {
            "inputs": [
                {
                    "internalType": "address",
                    "name": "newOwner",
                    "type": "address"
                }
            ],
            "name": "transferOwnership",
            "outputs": [],
            "stateMutability": "nonpayable",
            "type": "function"
        },
        {
            "inputs": [
                {
                    "internalType": "address",
                    "name": "",
                    "type": "address"
                }
            ],
            "name": "walletMints",
            "outputs": [
                {
                    "internalType": "uint256",
                    "name": "",
                    "type": "uint256"
                }
            ],
            "stateMutability": "view",
            "type": "function"
        },
        {
            "inputs": [],
            "name": "withdraw",
            "outputs": [],
            "stateMutability": "nonpayable",
            "type": "function"
        },
        {
            "inputs": [],
            "name": "withdrawWallet",
            "outputs": [
                {
                    "internalType": "address payable",
                    "name": "",
                    "type": "address"
                }
            ],
            "stateMutability": "view",
            "type": "function"
        }
    ],
    "bytecode": "0x60806040526040518060400160405280600a81526020017f526f626f2050756e6b73000000000000000000000000000000000000000000008152506040518060400160405280600281526020017f5250000000000000000000000000000000000000000000000000000000000000815250816000908051906020019062000088929190620001bf565b508060019080519060200190620000a1929190620001bf565b505050620000c4620000b8620000f160201b60201c565b620000f960201b60201c565b66470de4df82000060078190555060006008819055506103e86009819055506003600a81905550620002d4565b600033905090565b6000600660009054906101000a900473ffffffffffffffffffffffffffffffffffffffff16905081600660006101000a81548173ffffffffffffffffffffffffffffffffffffffff021916908373ffffffffffffffffffffffffffffffffffffffff1602179055508173ffffffffffffffffffffffffffffffffffffffff168173ffffffffffffffffffffffffffffffffffffffff167f8be0079c531659141344cd1fd0a4f28419497f9722a3daafe3b4186f6b6457e060405160405180910390a35050565b828054620001cd906200026f565b90600052602060002090601f016020900481019282620001f157600085556200023d565b82601f106200020c57805160ff19168380011785556200023d565b828001600101855582156200023d579182015b828111156200023c5782518255916020019190600101906200021f565b5b5090506200024c919062000250565b5090565b5b808211156200026b57600081600090555060010162000251565b5090565b600060028204905060018216806200028857607f821691505b602082108114156200029f576200029e620002a5565b5b50919050565b7f4e487b7100000000000000000000000000000000000000000000000000000000600052602260045260246000fd5b6133cb80620002e46000396000f3fe60806040526004361061019c5760003560e01c806385d178f4116100ec578063b88d4fde1161008a578063d5abeb0111610064578063d5abeb0114610593578063e985e9c5146105be578063f0293fd3146105fb578063f2fde38b146106385761019c565b8063b88d4fde14610504578063c45580d41461052d578063c87b56dd146105565761019c565b806395652cfa116100c657806395652cfa1461046b57806395d89b4114610494578063a0712d68146104bf578063a22cb465146104db5761019c565b806385d178f4146103ea57806389f0d401146104155780638da5cb5b146104405761019c565b80633ccfd60b116101595780636352211e116101335780636352211e1461032e5780636817c76c1461036b57806370a0823114610396578063715018a6146103d35761019c565b80633ccfd60b146102c357806342842e0e146102da578063453c2310146103035761019c565b806301ffc9a7146101a157806306fdde03146101de578063081812fc14610209578063095ea7b31461024657806318160ddd1461026f57806323b872dd1461029a575b600080fd5b3480156101ad57600080fd5b506101c860048036038101906101c39190612222565b610661565b6040516101d591906127d6565b60405180910390f35b3480156101ea57600080fd5b506101f3610743565b60405161020091906127f1565b60405180910390f35b34801561021557600080fd5b50610230600480360381019061022b91906122c9565b6107d5565b60405161023d9190612754565b60405180910390f35b34801561025257600080fd5b5061026d600480360381019061026891906121b5565b61081b565b005b34801561027b57600080fd5b50610284610933565b6040516102919190612a53565b60405180910390f35b3480156102a657600080fd5b506102c160048036038101906102bc919061209f565b610939565b005b3480156102cf57600080fd5b506102d8610999565b005b3480156102e657600080fd5b5061030160048036038101906102fc919061209f565b610a1a565b005b34801561030f57600080fd5b50610318610a3a565b6040516103259190612a53565b60405180910390f35b34801561033a57600080fd5b50610355600480360381019061035091906122c9565b610a40565b6040516103629190612754565b60405180910390f35b34801561037757600080fd5b50610380610af2565b60405161038d9190612a53565b60405180910390f35b3480156103a257600080fd5b506103bd60048036038101906103b89190612032565b610af8565b6040516103ca9190612a53565b60405180910390f35b3480156103df57600080fd5b506103e8610bb0565b005b3480156103f657600080fd5b506103ff610bc4565b60405161040c919061276f565b60405180910390f35b34801561042157600080fd5b5061042a610bea565b60405161043791906127d6565b60405180910390f35b34801561044c57600080fd5b50610455610bfd565b6040516104629190612754565b60405180910390f35b34801561047757600080fd5b50610492600480360381019061048d919061227c565b610c27565b005b3480156104a057600080fd5b506104a9610c45565b6040516104b691906127f1565b60405180910390f35b6104d960048036038101906104d491906122c9565b610cd7565b005b3480156104e757600080fd5b5061050260048036038101906104fd9190612175565b610eae565b005b34801561051057600080fd5b5061052b600480360381019061052691906120f2565b610ec4565b005b34801561053957600080fd5b50610554600480360381019061054f91906121f5565b610f26565b005b34801561056257600080fd5b5061057d600480360381019061057891906122c9565b610f4b565b60405161058a91906127f1565b60405180910390f35b34801561059f57600080fd5b506105a8610fc7565b6040516105b59190612a53565b60405180910390f35b3480156105ca57600080fd5b506105e560048036038101906105e0919061205f565b610fcd565b6040516105f291906127d6565b60405180910390f35b34801561060757600080fd5b50610622600480360381019061061d9190612032565b611061565b60405161062f9190612a53565b60405180910390f35b34801561064457600080fd5b5061065f600480360381019061065a9190612032565b611079565b005b60007f80ac58cd000000000000000000000000000000000000000000000000000000007bffffffffffffffffffffffffffffffffffffffffffffffffffffffff1916827bffffffffffffffffffffffffffffffffffffffffffffffffffffffff1916148061072c57507f5b5e139f000000000000000000000000000000000000000000000000000000007bffffffffffffffffffffffffffffffffffffffffffffffffffffffff1916827bffffffffffffffffffffffffffffffffffffffffffffffffffffffff1916145b8061073c575061073b826110fd565b5b9050919050565b60606000805461075290612d04565b80601f016020809104026020016040519081016040528092919081815260200182805461077e90612d04565b80156107cb5780601f106107a0576101008083540402835291602001916107cb565b820191906000526020600020905b8154815290600101906020018083116107ae57829003601f168201915b5050505050905090565b60006107e082611167565b6004600083815260200190815260200160002060009054906101000a900473ffffffffffffffffffffffffffffffffffffffff169050919050565b600061082682610a40565b90508073ffffffffffffffffffffffffffffffffffffffff168373ffffffffffffffffffffffffffffffffffffffff161415610897576040517f08c379a000000000000000000000000000000000000000000000000000000000815260040161088e906129f3565b60405180910390fd5b8073ffffffffffffffffffffffffffffffffffffffff166108b66111b2565b73ffffffffffffffffffffffffffffffffffffffff1614806108e557506108e4816108df6111b2565b610fcd565b5b610924576040517f08c379a000000000000000000000000000000000000000000000000000000000815260040161091b90612953565b60405180910390fd5b61092e83836111ba565b505050565b60085481565b61094a6109446111b2565b82611273565b610989576040517f08c379a000000000000000000000000000000000000000000000000000000000815260040161098090612a33565b60405180910390fd5b610994838383611308565b505050565b6109a161156f565b60003373ffffffffffffffffffffffffffffffffffffffff16476040516109c79061273f565b60006040518083038185875af1925050503d8060008114610a04576040519150601f19603f3d011682016040523d82523d6000602084013e610a09565b606091505b5050905080610a1757600080fd5b50565b610a3583838360405180602001604052806000815250610ec4565b505050565b600a5481565b6000806002600084815260200190815260200160002060009054906101000a900473ffffffffffffffffffffffffffffffffffffffff169050600073ffffffffffffffffffffffffffffffffffffffff168173ffffffffffffffffffffffffffffffffffffffff161415610ae9576040517f08c379a0000000000000000000000000000000000000000000000000000000008152600401610ae0906129d3565b60405180910390fd5b80915050919050565b60075481565b60008073ffffffffffffffffffffffffffffffffffffffff168273ffffffffffffffffffffffffffffffffffffffff161415610b69576040517f08c379a0000000000000000000000000000000000000000000000000000000008152600401610b6090612933565b60405180910390fd5b600360008373ffffffffffffffffffffffffffffffffffffffff1673ffffffffffffffffffffffffffffffffffffffff168152602001908152602001600020549050919050565b610bb861156f565b610bc260006115ed565b565b600d60009054906101000a900473ffffffffffffffffffffffffffffffffffffffff1681565b600b60009054906101000a900460ff1681565b6000600660009054906101000a900473ffffffffffffffffffffffffffffffffffffffff16905090565b610c2f61156f565b8181600c9190610c40929190611e60565b505050565b606060018054610c5490612d04565b80601f0160208091040260200160405190810160405280929190818152602001828054610c8090612d04565b8015610ccd5780601f10610ca257610100808354040283529160200191610ccd565b820191906000526020600020905b815481529060010190602001808311610cb057829003601f168201915b5050505050905090565b600b60009054906101000a900460ff16610d26576040517f08c379a0000000000000000000000000000000000000000000000000000000008152600401610d1d906129b3565b60405180910390fd5b60075481610d349190612bae565b3414610d75576040517f08c379a0000000000000000000000000000000000000000000000000000000008152600401610d6c90612a13565b60405180910390fd5b60095481600854610d869190612b27565b1115610dc7576040517f08c379a0000000000000000000000000000000000000000000000000000000008152600401610dbe906128d3565b60405180910390fd5b600a5481600e60003373ffffffffffffffffffffffffffffffffffffffff1673ffffffffffffffffffffffffffffffffffffffff16815260200190815260200160002054610e159190612b27565b1115610e56576040517f08c379a0000000000000000000000000000000000000000000000000000000008152600401610e4d90612813565b60405180910390fd5b60005b81811015610eaa5760006001600854610e729190612b27565b905060086000815480929190610e8790612d67565b9190505550610e9633826116b3565b508080610ea290612d67565b915050610e59565b5050565b610ec0610eb96111b2565b83836116d1565b5050565b610ed5610ecf6111b2565b83611273565b610f14576040517f08c379a0000000000000000000000000000000000000000000000000000000008152600401610f0b90612a33565b60405180910390fd5b610f208484848461183e565b50505050565b610f2e61156f565b80600b60006101000a81548160ff02191690831515021790555050565b6060610f568261189a565b610f95576040517f08c379a0000000000000000000000000000000000000000000000000000000008152600401610f8c90612893565b60405180910390fd5b600c610fa083611906565b604051602001610fb1929190612710565b6040516020818303038152906040529050919050565b60095481565b6000600560008473ffffffffffffffffffffffffffffffffffffffff1673ffffffffffffffffffffffffffffffffffffffff16815260200190815260200160002060008373ffffffffffffffffffffffffffffffffffffffff1673ffffffffffffffffffffffffffffffffffffffff16815260200190815260200160002060009054906101000a900460ff16905092915050565b600e6020528060005260406000206000915090505481565b61108161156f565b600073ffffffffffffffffffffffffffffffffffffffff168173ffffffffffffffffffffffffffffffffffffffff1614156110f1576040517f08c379a00000000000000000000000000000000000000000000000000000000081526004016110e890612853565b60405180910390fd5b6110fa816115ed565b50565b60007f01ffc9a7000000000000000000000000000000000000000000000000000000007bffffffffffffffffffffffffffffffffffffffffffffffffffffffff1916827bffffffffffffffffffffffffffffffffffffffffffffffffffffffff1916149050919050565b6111708161189a565b6111af576040517f08c379a00000000000000000000000000000000000000000000000000000000081526004016111a6906129d3565b60405180910390fd5b50565b600033905090565b816004600083815260200190815260200160002060006101000a81548173ffffffffffffffffffffffffffffffffffffffff021916908373ffffffffffffffffffffffffffffffffffffffff160217905550808273ffffffffffffffffffffffffffffffffffffffff1661122d83610a40565b73ffffffffffffffffffffffffffffffffffffffff167f8c5be1e5ebec7d5bd14f71427d1e84f3dd0314c0f7b2291e5b200ac8c7c3b92560405160405180910390a45050565b60008061127f83610a40565b90508073ffffffffffffffffffffffffffffffffffffffff168473ffffffffffffffffffffffffffffffffffffffff1614806112c157506112c08185610fcd565b5b806112ff57508373ffffffffffffffffffffffffffffffffffffffff166112e7846107d5565b73ffffffffffffffffffffffffffffffffffffffff16145b91505092915050565b8273ffffffffffffffffffffffffffffffffffffffff1661132882610a40565b73ffffffffffffffffffffffffffffffffffffffff161461137e576040517f08c379a000000000000000000000000000000000000000000000000000000000815260040161137590612873565b60405180910390fd5b600073ffffffffffffffffffffffffffffffffffffffff168273ffffffffffffffffffffffffffffffffffffffff1614156113ee576040517f08c379a00000000000000000000000000000000000000000000000000000000081526004016113e5906128f3565b60405180910390fd5b6113f9838383611a67565b6114046000826111ba565b6001600360008573ffffffffffffffffffffffffffffffffffffffff1673ffffffffffffffffffffffffffffffffffffffff16815260200190815260200160002060008282546114549190612c08565b925050819055506001600360008473ffffffffffffffffffffffffffffffffffffffff1673ffffffffffffffffffffffffffffffffffffffff16815260200190815260200160002060008282546114ab9190612b27565b92505081905550816002600083815260200190815260200160002060006101000a81548173ffffffffffffffffffffffffffffffffffffffff021916908373ffffffffffffffffffffffffffffffffffffffff160217905550808273ffffffffffffffffffffffffffffffffffffffff168473ffffffffffffffffffffffffffffffffffffffff167fddf252ad1be2c89b69c2b068fc378daa952ba7f163c4a11628f55a4df523b3ef60405160405180910390a461156a838383611a6c565b505050565b6115776111b2565b73ffffffffffffffffffffffffffffffffffffffff16611595610bfd565b73ffffffffffffffffffffffffffffffffffffffff16146115eb576040517f08c379a00000000000000000000000000000000000000000000000000000000081526004016115e290612993565b60405180910390fd5b565b6000600660009054906101000a900473ffffffffffffffffffffffffffffffffffffffff16905081600660006101000a81548173ffffffffffffffffffffffffffffffffffffffff021916908373ffffffffffffffffffffffffffffffffffffffff1602179055508173ffffffffffffffffffffffffffffffffffffffff168173ffffffffffffffffffffffffffffffffffffffff167f8be0079c531659141344cd1fd0a4f28419497f9722a3daafe3b4186f6b6457e060405160405180910390a35050565b6116cd828260405180602001604052806000815250611a71565b5050565b8173ffffffffffffffffffffffffffffffffffffffff168373ffffffffffffffffffffffffffffffffffffffff161415611740576040517f08c379a000000000000000000000000000000000000000000000000000000000815260040161173790612913565b60405180910390fd5b80600560008573ffffffffffffffffffffffffffffffffffffffff1673ffffffffffffffffffffffffffffffffffffffff16815260200190815260200160002060008473ffffffffffffffffffffffffffffffffffffffff1673ffffffffffffffffffffffffffffffffffffffff16815260200190815260200160002060006101000a81548160ff0219169083151502179055508173ffffffffffffffffffffffffffffffffffffffff168373ffffffffffffffffffffffffffffffffffffffff167f17307eab39ab6107e8899845ad3d59bd9653f200f220920489ca2b5937696c318360405161183191906127d6565b60405180910390a3505050565b611849848484611308565b61185584848484611acc565b611894576040517f08c379a000000000000000000000000000000000000000000000000000000000815260040161188b90612833565b60405180910390fd5b50505050565b60008073ffffffffffffffffffffffffffffffffffffffff166002600084815260200190815260200160002060009054906101000a900473ffffffffffffffffffffffffffffffffffffffff1673ffffffffffffffffffffffffffffffffffffffff1614159050919050565b6060600082141561194e576040518060400160405280600181526020017f30000000000000000000000000000000000000000000000000000000000000008152509050611a62565b600082905060005b6000821461198057808061196990612d67565b915050600a826119799190612b7d565b9150611956565b60008167ffffffffffffffff81111561199c5761199b612e9d565b5b6040519080825280601f01601f1916602001820160405280156119ce5781602001600182028036833780820191505090505b5090505b60008514611a5b576001826119e79190612c08565b9150600a856119f69190612db0565b6030611a029190612b27565b60f81b818381518110611a1857611a17612e6e565b5b60200101907effffffffffffffffffffffffffffffffffffffffffffffffffffffffffffff1916908160001a905350600a85611a549190612b7d565b94506119d2565b8093505050505b919050565b505050565b505050565b611a7b8383611c63565b611a886000848484611acc565b611ac7576040517f08c379a0000000000000000000000000000000000000000000000000000000008152600401611abe90612833565b60405180910390fd5b505050565b6000611aed8473ffffffffffffffffffffffffffffffffffffffff16611e3d565b15611c56578373ffffffffffffffffffffffffffffffffffffffff1663150b7a02611b166111b2565b8786866040518563ffffffff1660e01b8152600401611b38949392919061278a565b602060405180830381600087803b158015611b5257600080fd5b505af1925050508015611b8357506040513d601f19601f82011682018060405250810190611b80919061224f565b60015b611c06573d8060008114611bb3576040519150601f19603f3d011682016040523d82523d6000602084013e611bb8565b606091505b50600081511415611bfe576040517f08c379a0000000000000000000000000000000000000000000000000000000008152600401611bf590612833565b60405180910390fd5b805181602001fd5b63150b7a0260e01b7bffffffffffffffffffffffffffffffffffffffffffffffffffffffff1916817bffffffffffffffffffffffffffffffffffffffffffffffffffffffff191614915050611c5b565b600190505b949350505050565b600073ffffffffffffffffffffffffffffffffffffffff168273ffffffffffffffffffffffffffffffffffffffff161415611cd3576040517f08c379a0000000000000000000000000000000000000000000000000000000008152600401611cca90612973565b60405180910390fd5b611cdc8161189a565b15611d1c576040517f08c379a0000000000000000000000000000000000000000000000000000000008152600401611d13906128b3565b60405180910390fd5b611d2860008383611a67565b6001600360008473ffffffffffffffffffffffffffffffffffffffff1673ffffffffffffffffffffffffffffffffffffffff1681526020019081526020016000206000828254611d789190612b27565b92505081905550816002600083815260200190815260200160002060006101000a81548173ffffffffffffffffffffffffffffffffffffffff021916908373ffffffffffffffffffffffffffffffffffffffff160217905550808273ffffffffffffffffffffffffffffffffffffffff16600073ffffffffffffffffffffffffffffffffffffffff167fddf252ad1be2c89b69c2b068fc378daa952ba7f163c4a11628f55a4df523b3ef60405160405180910390a4611e3960008383611a6c565b5050565b6000808273ffffffffffffffffffffffffffffffffffffffff163b119050919050565b828054611e6c90612d04565b90600052602060002090601f016020900481019282611e8e5760008555611ed5565b82601f10611ea757803560ff1916838001178555611ed5565b82800160010185558215611ed5579182015b82811115611ed4578235825591602001919060010190611eb9565b5b509050611ee29190611ee6565b5090565b5b80821115611eff576000816000905550600101611ee7565b5090565b6000611f16611f1184612a93565b612a6e565b905082815260208101848484011115611f3257611f31612edb565b5b611f3d848285612cc2565b509392505050565b600081359050611f5481613339565b92915050565b600081359050611f6981613350565b92915050565b600081359050611f7e81613367565b92915050565b600081519050611f9381613367565b92915050565b600082601f830112611fae57611fad612ed1565b5b8135611fbe848260208601611f03565b91505092915050565b60008083601f840112611fdd57611fdc612ed1565b5b8235905067ffffffffffffffff811115611ffa57611ff9612ecc565b5b60208301915083600182028301111561201657612015612ed6565b5b9250929050565b60008135905061202c8161337e565b92915050565b60006020828403121561204857612047612ee5565b5b600061205684828501611f45565b91505092915050565b6000806040838503121561207657612075612ee5565b5b600061208485828601611f45565b925050602061209585828601611f45565b9150509250929050565b6000806000606084860312156120b8576120b7612ee5565b5b60006120c686828701611f45565b93505060206120d786828701611f45565b92505060406120e88682870161201d565b9150509250925092565b6000806000806080858703121561210c5761210b612ee5565b5b600061211a87828801611f45565b945050602061212b87828801611f45565b935050604061213c8782880161201d565b925050606085013567ffffffffffffffff81111561215d5761215c612ee0565b5b61216987828801611f99565b91505092959194509250565b6000806040838503121561218c5761218b612ee5565b5b600061219a85828601611f45565b92505060206121ab85828601611f5a565b9150509250929050565b600080604083850312156121cc576121cb612ee5565b5b60006121da85828601611f45565b92505060206121eb8582860161201d565b9150509250929050565b60006020828403121561220b5761220a612ee5565b5b600061221984828501611f5a565b91505092915050565b60006020828403121561223857612237612ee5565b5b600061224684828501611f6f565b91505092915050565b60006020828403121561226557612264612ee5565b5b600061227384828501611f84565b91505092915050565b6000806020838503121561229357612292612ee5565b5b600083013567ffffffffffffffff8111156122b1576122b0612ee0565b5b6122bd85828601611fc7565b92509250509250929050565b6000602082840312156122df576122de612ee5565b5b60006122ed8482850161201d565b91505092915050565b6122ff81612c4e565b82525050565b61230e81612c3c565b82525050565b61231d81612c60565b82525050565b600061232e82612ad9565b6123388185612aef565b9350612348818560208601612cd1565b61235181612eea565b840191505092915050565b600061236782612ae4565b6123718185612b0b565b9350612381818560208601612cd1565b61238a81612eea565b840191505092915050565b60006123a082612ae4565b6123aa8185612b1c565b93506123ba818560208601612cd1565b80840191505092915050565b600081546123d381612d04565b6123dd8186612b1c565b945060018216600081146123f857600181146124095761243c565b60ff1983168652818601935061243c565b61241285612ac4565b60005b8381101561243457815481890152600182019150602081019050612415565b838801955050505b50505092915050565b6000612452601983612b0b565b915061245d82612efb565b602082019050919050565b6000612475603283612b0b565b915061248082612f24565b604082019050919050565b6000612498602683612b0b565b91506124a382612f73565b604082019050919050565b60006124bb602583612b0b565b91506124c682612fc2565b604082019050919050565b60006124de601383612b0b565b91506124e982613011565b602082019050919050565b6000612501601c83612b0b565b915061250c8261303a565b602082019050919050565b6000612524601983612b0b565b915061252f82613063565b602082019050919050565b6000612547602483612b0b565b91506125528261308c565b604082019050919050565b600061256a601983612b0b565b9150612575826130db565b602082019050919050565b600061258d602983612b0b565b915061259882613104565b604082019050919050565b60006125b0603e83612b0b565b91506125bb82613153565b604082019050919050565b60006125d3602083612b0b565b91506125de826131a2565b602082019050919050565b60006125f6600583612b1c565b9150612601826131cb565b600582019050919050565b6000612619602083612b0b565b9150612624826131f4565b602082019050919050565b600061263c601383612b0b565b91506126478261321d565b602082019050919050565b600061265f601883612b0b565b915061266a82613246565b602082019050919050565b6000612682602183612b0b565b915061268d8261326f565b604082019050919050565b60006126a5600083612b00565b91506126b0826132be565b600082019050919050565b60006126c8601083612b0b565b91506126d3826132c1565b602082019050919050565b60006126eb602e83612b0b565b91506126f6826132ea565b604082019050919050565b61270a81612cb8565b82525050565b600061271c82856123c6565b91506127288284612395565b9150612733826125e9565b91508190509392505050565b600061274a82612698565b9150819050919050565b60006020820190506127696000830184612305565b92915050565b600060208201905061278460008301846122f6565b92915050565b600060808201905061279f6000830187612305565b6127ac6020830186612305565b6127b96040830185612701565b81810360608301526127cb8184612323565b905095945050505050565b60006020820190506127eb6000830184612314565b92915050565b6000602082019050818103600083015261280b818461235c565b905092915050565b6000602082019050818103600083015261282c81612445565b9050919050565b6000602082019050818103600083015261284c81612468565b9050919050565b6000602082019050818103600083015261286c8161248b565b9050919050565b6000602082019050818103600083015261288c816124ae565b9050919050565b600060208201905081810360008301526128ac816124d1565b9050919050565b600060208201905081810360008301526128cc816124f4565b9050919050565b600060208201905081810360008301526128ec81612517565b9050919050565b6000602082019050818103600083015261290c8161253a565b9050919050565b6000602082019050818103600083015261292c8161255d565b9050919050565b6000602082019050818103600083015261294c81612580565b9050919050565b6000602082019050818103600083015261296c816125a3565b9050919050565b6000602082019050818103600083015261298c816125c6565b9050919050565b600060208201905081810360008301526129ac8161260c565b9050919050565b600060208201905081810360008301526129cc8161262f565b9050919050565b600060208201905081810360008301526129ec81612652565b9050919050565b60006020820190508181036000830152612a0c81612675565b9050919050565b60006020820190508181036000830152612a2c816126bb565b9050919050565b60006020820190508181036000830152612a4c816126de565b9050919050565b6000602082019050612a686000830184612701565b92915050565b6000612a78612a89565b9050612a848282612d36565b919050565b6000604051905090565b600067ffffffffffffffff821115612aae57612aad612e9d565b5b612ab782612eea565b9050602081019050919050565b60008190508160005260206000209050919050565b600081519050919050565b600081519050919050565b600082825260208201905092915050565b600081905092915050565b600082825260208201905092915050565b600081905092915050565b6000612b3282612cb8565b9150612b3d83612cb8565b9250827fffffffffffffffffffffffffffffffffffffffffffffffffffffffffffffffff03821115612b7257612b71612de1565b5b828201905092915050565b6000612b8882612cb8565b9150612b9383612cb8565b925082612ba357612ba2612e10565b5b828204905092915050565b6000612bb982612cb8565b9150612bc483612cb8565b9250817fffffffffffffffffffffffffffffffffffffffffffffffffffffffffffffffff0483118215151615612bfd57612bfc612de1565b5b828202905092915050565b6000612c1382612cb8565b9150612c1e83612cb8565b925082821015612c3157612c30612de1565b5b828203905092915050565b6000612c4782612c98565b9050919050565b6000612c5982612c98565b9050919050565b60008115159050919050565b60007fffffffff0000000000000000000000000000000000000000000000000000000082169050919050565b600073ffffffffffffffffffffffffffffffffffffffff82169050919050565b6000819050919050565b82818337600083830152505050565b60005b83811015612cef578082015181840152602081019050612cd4565b83811115612cfe576000848401525b50505050565b60006002820490506001821680612d1c57607f821691505b60208210811415612d3057612d2f612e3f565b5b50919050565b612d3f82612eea565b810181811067ffffffffffffffff82111715612d5e57612d5d612e9d565b5b80604052505050565b6000612d7282612cb8565b91507fffffffffffffffffffffffffffffffffffffffffffffffffffffffffffffffff821415612da557612da4612de1565b5b600182019050919050565b6000612dbb82612cb8565b9150612dc683612cb8565b925082612dd657612dd5612e10565b5b828206905092915050565b7f4e487b7100000000000000000000000000000000000000000000000000000000600052601160045260246000fd5b7f4e487b7100000000000000000000000000000000000000000000000000000000600052601260045260246000fd5b7f4e487b7100000000000000000000000000000000000000000000000000000000600052602260045260246000fd5b7f4e487b7100000000000000000000000000000000000000000000000000000000600052603260045260246000fd5b7f4e487b7100000000000000000000000000000000000000000000000000000000600052604160045260246000fd5b600080fd5b600080fd5b600080fd5b600080fd5b600080fd5b600080fd5b6000601f19601f8301169050919050565b7f45786365656473206c696d697473207065722077616c6c657400000000000000600082015250565b7f4552433732313a207472616e7366657220746f206e6f6e20455243373231526560008201527f63656976657220696d706c656d656e7465720000000000000000000000000000602082015250565b7f4f776e61626c653a206e6577206f776e657220697320746865207a65726f206160008201527f6464726573730000000000000000000000000000000000000000000000000000602082015250565b7f4552433732313a207472616e736665722066726f6d20696e636f72726563742060008201527f6f776e6572000000000000000000000000000000000000000000000000000000602082015250565b7f546f6b656e20646f65736e6f7420657869737400000000000000000000000000600082015250565b7f4552433732313a20746f6b656e20616c7265616479206d696e74656400000000600082015250565b7f45786365656465642074686520746f74616c20537570706c7900000000000000600082015250565b7f4552433732313a207472616e7366657220746f20746865207a65726f2061646460008201527f7265737300000000000000000000000000000000000000000000000000000000602082015250565b7f4552433732313a20617070726f766520746f2063616c6c657200000000000000600082015250565b7f4552433732313a2061646472657373207a65726f206973206e6f74206120766160008201527f6c6964206f776e65720000000000000000000000000000000000000000000000602082015250565b7f4552433732313a20617070726f76652063616c6c6572206973206e6f7420746f60008201527f6b656e206f776e6572206e6f7220617070726f76656420666f7220616c6c0000602082015250565b7f4552433732313a206d696e7420746f20746865207a65726f2061646472657373600082015250565b7f2e6a736f6e000000000000000000000000000000000000000000000000000000600082015250565b7f4f776e61626c653a2063616c6c6572206973206e6f7420746865206f776e6572600082015250565b7f4d696e74696e67206e6f7420656e61626c656400000000000000000000000000600082015250565b7f4552433732313a20696e76616c696420746f6b656e2049440000000000000000600082015250565b7f4552433732313a20617070726f76616c20746f2063757272656e74206f776e6560008201527f7200000000000000000000000000000000000000000000000000000000000000602082015250565b50565b7f57726f6e67206d696e742076616c756500000000000000000000000000000000600082015250565b7f4552433732313a2063616c6c6572206973206e6f7420746f6b656e206f776e6560008201527f72206e6f7220617070726f766564000000000000000000000000000000000000602082015250565b61334281612c3c565b811461334d57600080fd5b50565b61335981612c60565b811461336457600080fd5b50565b61337081612c6c565b811461337b57600080fd5b50565b61338781612cb8565b811461339257600080fd5b5056fea26469706673582212205ea5bf443ebc47e7c0350f405c42f2bf04890cb2f8a7892768e0220737e4daec64736f6c63430008070033",
    "linkReferences": {},
    "deployedLinkReferences": {}
}